:100000000C9446000C9465000C9465000C946500FB
:100010000C9465000C9465000C9465000C946500CC
:100020000C9465000C9465000C9465000C946500BC
:100030000C9465000C9465000C9465000C946500AC
:100040000C9465000C9465000C9465000C9465009C
:100050000C9465000C9465000C9465000C9465008C
:100060000C9465000C9465000C9465000C9465007C
:100070000C9465000C9465000C9465000C9465006C
:100080000C9465000C9465000C94650011241FBE4F
:10009000CFEFD0E4DEBFCDBF11E0A0E0B1E0EAE5F4
:1000A000F2E000E00BBF02C007900D92AC31B10747
:1000B000D9F721E0ACE1B1E001C01D92AE31B20749
:1000C000E1F70E9490000C942B010C940000CF9358
:1000D000DF9300D01F92CDB7DEB789837B836A831D
:1000E00089818A3031F48A819B81BC018DE00E9434
:1000F000670080EC90E0FC018081882F90E08072A6
:100100009927892BB1F386EC90E02981FC012083AB
:1001100080E090E00F900F900F90DF91CF910895C5
:10012000CF93DF93CDB7DEB72F970FB6F894DEBF2E
:100130000FBECDBF81E290E0FC01108282E290E030
:100140002FEFFC01208384E290E02FEFFC0120835D
:1001500085E290E0FC01108210921D0110921C01BA
:100160008EE0EEE0F1E0DE01129601900D928A95AC
:10017000E1F7198280911C0190911D018130910558
:1001800089F08130910530F082309105E1F00397DC
:1001900009F134C0198281E090E090931D018093B1
:1001A0001C012CC080E290E0FC018081882F90E04F
:1001B00081709927892BF9F482E090E090931D01DA
:1001C00080931C0118C083E090E090931D01809300
:1001D0001C0114C080E290E0FC018081882F90E037
:1001E00081709927892B49F081E090E090931D015F
:1001F00080931C0102C0000001C0000080911C011E
:1002000090911D018130910501F181309105F8F047
:100210008230910519F00397E1F01CC089818D307F
:1002200019F089818F5F01C080E0898385E290E0C9
:100230002981222F30E0AE014E5F5F4F240F351F22
:10024000F9012081FC01208305C0000093CF00004C
:0A02500091CF00008FCFF894FFCF8C
:10025A00000000020000000067000000000000012A
:0C026A0003070F1F3F002030383C3E3FD0
:00000001FF
